8=FIX.4.4|9=106|35=A|34=1|49=CSERVER|50=TRADE|52=20170117-08:03:04.509|56=theBroker.12345|57=any_string|98=0|108=30|141=Y|10=066|
8=FIX.4.4|9=168|35=8|49=BTNL_DC|56=fix_client|34=1|50=FastTradeInc|52=20061124-15:47:02.951|37=1|11=0|526=1|17=1|150=0|39=0|1=FTI|55=BUSZ6|20055=231|54=1|44=19000|38=10|151=10|14=0|6=0|167=FUT|541=20061221|439=JP|582=2|581=2|10=CHECKSUM|
