8=FIX.4.4|9=106|35=A|34=1|49=CSERVER|50=TRADE|52=20170117-08:03:04.509|56=theBroker.12345|57=any_string|98=0|108=30|141=Y|10=066|
